{
  "address": "0x18E929bea2700Db35cFC3D8AE6963E7863E158A8",
  "abi": [
    {
      "inputs": [],
      "stateMutability": "nonpayable",
      "type": "constructor"
    },
    {
      "inputs": [],
      "name": "ECDSAInvalidSignature",
      "type": "error"
    },
    {
      "inputs": [
        {
          "internalType": "uint256",
          "name": "length",
          "type": "uint256"
        }
      ],
      "name": "ECDSAInvalidSignatureLength",
      "type": "error"
    },
    {
      "inputs": [
        {
          "internalType": "bytes32",
          "name": "s",
          "type": "bytes32"
        }
      ],
      "name": "ECDSAInvalidSignatureS",
      "type": "error"
    },
    {
      "inputs": [
        {
          "internalType": "address",
          "name": "sender",
          "type": "address"
        },
        {
          "internalType": "uint256",
          "name": "tokenId",
          "type": "uint256"
        },
        {
          "internalType": "address",
          "name": "owner",
          "type": "address"
        }
      ],
      "name": "ERC721IncorrectOwner",
      "type": "error"
    },
    {
      "inputs": [
        {
          "internalType": "address",
          "name": "operator",
          "type": "address"
        },
        {
          "internalType": "uint256",
          "name": "tokenId",
          "type": "uint256"
        }
      ],
      "name": "ERC721InsufficientApproval",
      "type": "error"
    },
    {
      "inputs": [
        {
          "internalType": "address",
          "name": "approver",
          "type": "address"
        }
      ],
      "name": "ERC721InvalidApprover",
      "type": "error"
    },
    {
      "inputs": [
        {
          "internalType": "address",
          "name": "operator",
          "type": "address"
        }
      ],
      "name": "ERC721InvalidOperator",
      "type": "error"
    },
    {
      "inputs": [
        {
          "internalType": "address",
          "name": "owner",
          "type": "address"
        }
      ],
      "name": "ERC721InvalidOwner",
      "type": "error"
    },
    {
      "inputs": [
        {
          "internalType": "address",
          "name": "receiver",
          "type": "address"
        }
      ],
      "name": "ERC721InvalidReceiver",
      "type": "error"
    },
    {
      "inputs": [
        {
          "internalType": "address",
          "name": "sender",
          "type": "address"
        }
      ],
      "name": "ERC721InvalidSender",
      "type": "error"
    },
    {
      "inputs": [
        {
          "internalType": "uint256",
          "name": "tokenId",
          "type": "uint256"
        }
      ],
      "name": "ERC721NonexistentToken",
      "type": "error"
    },
    {
      "inputs": [],
      "name": "InvalidShortString",
      "type": "error"
    },
    {
      "inputs": [
        {
          "internalType": "address",
          "name": "owner",
          "type": "address"
        }
      ],
      "name": "OwnableInvalidOwner",
      "type": "error"
    },
    {
      "inputs": [
        {
          "internalType": "address",
          "name": "account",
          "type": "address"
        }
      ],
      "name": "OwnableUnauthorizedAccount",
      "type": "error"
    },
    {
      "inputs": [],
      "name": "SignerNotMessageSender",
      "type": "error"
    },
    {
      "inputs": [],
      "name": "SignerNotOwner",
      "type": "error"
    },
    {
      "inputs": [
        {
          "internalType": "string",
          "name": "str",
          "type": "string"
        }
      ],
      "name": "StringTooLong",
      "type": "error"
    },
    {
      "anonymous": false,
      "inputs": [
        {
          "indexed": true,
          "internalType": "address",
          "name": "owner",
          "type": "address"
        },
        {
          "indexed": true,
          "internalType": "address",
          "name": "approved",
          "type": "address"
        },
        {
          "indexed": true,
          "internalType": "uint256",
          "name": "tokenId",
          "type": "uint256"
        }
      ],
      "name": "Approval",
      "type": "event"
    },
    {
      "anonymous": false,
      "inputs": [
        {
          "indexed": true,
          "internalType": "address",
          "name": "owner",
          "type": "address"
        },
        {
          "indexed": true,
          "internalType": "address",
          "name": "operator",
          "type": "address"
        },
        {
          "indexed": false,
          "internalType": "bool",
          "name": "approved",
          "type": "bool"
        }
      ],
      "name": "ApprovalForAll",
      "type": "event"
    },
    {
      "anonymous": false,
      "inputs": [],
      "name": "EIP712DomainChanged",
      "type": "event"
    },
    {
      "anonymous": false,
      "inputs": [
        {
          "indexed": true,
          "internalType": "address",
          "name": "previousOwner",
          "type": "address"
        },
        {
          "indexed": true,
          "internalType": "address",
          "name": "newOwner",
          "type": "address"
        }
      ],
      "name": "OwnershipTransferred",
      "type": "event"
    },
    {
      "anonymous": false,
      "inputs": [
        {
          "indexed": true,
          "internalType": "address",
          "name": "from",
          "type": "address"
        },
        {
          "indexed": true,
          "internalType": "address",
          "name": "to",
          "type": "address"
        },
        {
          "indexed": true,
          "internalType": "uint256",
          "name": "tokenId",
          "type": "uint256"
        }
      ],
      "name": "Transfer",
      "type": "event"
    },
    {
      "inputs": [
        {
          "internalType": "address",
          "name": "",
          "type": "address"
        }
      ],
      "name": "_identitylist",
      "outputs": [
        {
          "internalType": "euint32",
          "name": "dateOfBirth",
          "type": "uint256"
        },
        {
          "internalType": "euint8",
          "name": "medicalData",
          "type": "uint256"
        },
        {
          "internalType": "euint8",
          "name": "criminalRecord",
          "type": "uint256"
        },
        {
          "internalType": "euint8",
          "name": "fertilityMeasure",
          "type": "uint256"
        },
        {
          "internalType": "euint8",
          "name": "marriageStatus",
          "type": "uint256"
        },
        {
          "internalType": "euint8",
          "name": "rating",
          "type": "uint256"
        },
        {
          "internalType": "euint32",
          "name": "lastExamineDate",
          "type": "uint256"
        }
      ],
      "stateMutability": "view",
      "type": "function"
    },
    {
      "inputs": [
        {
          "internalType": "address",
          "name": "_adminAddress",
          "type": "address"
        }
      ],
      "name": "addAdmin",
      "outputs": [],
      "stateMutability": "nonpayable",
      "type": "function"
    },
    {
      "inputs": [
        {
          "internalType": "address",
          "name": "_user",
          "type": "address"
        },
        {
          "components": [
            {
              "internalType": "bytes",
              "name": "data",
              "type": "bytes"
            }
          ],
          "internalType": "struct inEuint8",
          "name": "__criminalRecord",
          "type": "tuple"
        }
      ],
      "name": "addCriminalRecord",
      "outputs": [],
      "stateMutability": "nonpayable",
      "type": "function"
    },
    {
      "inputs": [
        {
          "internalType": "address",
          "name": "_user",
          "type": "address"
        },
        {
          "components": [
            {
              "internalType": "bytes",
              "name": "data",
              "type": "bytes"
            }
          ],
          "internalType": "struct inEuint8",
          "name": "__fertilityCount",
          "type": "tuple"
        }
      ],
      "name": "addFertilityCount",
      "outputs": [],
      "stateMutability": "nonpayable",
      "type": "function"
    },
    {
      "inputs": [
        {
          "internalType": "address",
          "name": "_user",
          "type": "address"
        },
        {
          "components": [
            {
              "internalType": "bytes",
              "name": "data",
              "type": "bytes"
            }
          ],
          "internalType": "struct inEuint8",
          "name": "__marriageStatus",
          "type": "tuple"
        }
      ],
      "name": "addMarriageStatus",
      "outputs": [],
      "stateMutability": "nonpayable",
      "type": "function"
    },
    {
      "inputs": [
        {
          "internalType": "address",
          "name": "_user",
          "type": "address"
        },
        {
          "components": [
            {
              "internalType": "bytes",
              "name": "data",
              "type": "bytes"
            }
          ],
          "internalType": "struct inEuint8",
          "name": "_medicalInfo",
          "type": "tuple"
        },
        {
          "components": [
            {
              "internalType": "bytes",
              "name": "data",
              "type": "bytes"
            }
          ],
          "internalType": "struct inEuint32",
          "name": "_lastExamineDate",
          "type": "tuple"
        }
      ],
      "name": "addMedicalData",
      "outputs": [],
      "stateMutability": "nonpayable",
      "type": "function"
    },
    {
      "inputs": [
        {
          "internalType": "address",
          "name": "_user",
          "type": "address"
        },
        {
          "components": [
            {
              "internalType": "bytes",
              "name": "data",
              "type": "bytes"
            }
          ],
          "internalType": "struct inEuint8",
          "name": "__rating",
          "type": "tuple"
        }
      ],
      "name": "addRating",
      "outputs": [],
      "stateMutability": "nonpayable",
      "type": "function"
    },
    {
      "inputs": [
        {
          "internalType": "address",
          "name": "_user",
          "type": "address"
        },
        {
          "components": [
            {
              "internalType": "bytes",
              "name": "data",
              "type": "bytes"
            }
          ],
          "internalType": "struct inEuint32",
          "name": "_dateOfBirth",
          "type": "tuple"
        }
      ],
      "name": "addUserDOBDetails",
      "outputs": [],
      "stateMutability": "nonpayable",
      "type": "function"
    },
    {
      "inputs": [
        {
          "internalType": "address",
          "name": "to",
          "type": "address"
        },
        {
          "internalType": "uint256",
          "name": "tokenId",
          "type": "uint256"
        }
      ],
      "name": "approve",
      "outputs": [],
      "stateMutability": "nonpayable",
      "type": "function"
    },
    {
      "inputs": [
        {
          "internalType": "address",
          "name": "_dappAddress",
          "type": "address"
        }
      ],
      "name": "approveViewingOfData",
      "outputs": [],
      "stateMutability": "nonpayable",
      "type": "function"
    },
    {
      "inputs": [
        {
          "internalType": "address",
          "name": "owner",
          "type": "address"
        }
      ],
      "name": "balanceOf",
      "outputs": [
        {
          "internalType": "uint256",
          "name": "",
          "type": "uint256"
        }
      ],
      "stateMutability": "view",
      "type": "function"
    },
    {
      "inputs": [
        {
          "internalType": "uint256",
          "name": "tokenId",
          "type": "uint256"
        }
      ],
      "name": "burn",
      "outputs": [],
      "stateMutability": "nonpayable",
      "type": "function"
    },
    {
      "inputs": [],
      "name": "eip712Domain",
      "outputs": [
        {
          "internalType": "bytes1",
          "name": "fields",
          "type": "bytes1"
        },
        {
          "internalType": "string",
          "name": "name",
          "type": "string"
        },
        {
          "internalType": "string",
          "name": "version",
          "type": "string"
        },
        {
          "internalType": "uint256",
          "name": "chainId",
          "type": "uint256"
        },
        {
          "internalType": "address",
          "name": "verifyingContract",
          "type": "address"
        },
        {
          "internalType": "bytes32",
          "name": "salt",
          "type": "bytes32"
        },
        {
          "internalType": "uint256[]",
          "name": "extensions",
          "type": "uint256[]"
        }
      ],
      "stateMutability": "view",
      "type": "function"
    },
    {
      "inputs": [
        {
          "internalType": "uint256",
          "name": "tokenId",
          "type": "uint256"
        }
      ],
      "name": "getApproved",
      "outputs": [
        {
          "internalType": "address",
          "name": "",
          "type": "address"
        }
      ],
      "stateMutability": "view",
      "type": "function"
    },
    {
      "inputs": [
        {
          "internalType": "address",
          "name": "_userAddress",
          "type": "address"
        }
      ],
      "name": "isAboveEighteen",
      "outputs": [
        {
          "internalType": "bool",
          "name": "",
          "type": "bool"
        }
      ],
      "stateMutability": "view",
      "type": "function"
    },
    {
      "inputs": [
        {
          "internalType": "address",
          "name": "owner",
          "type": "address"
        },
        {
          "internalType": "address",
          "name": "operator",
          "type": "address"
        }
      ],
      "name": "isApprovedForAll",
      "outputs": [
        {
          "internalType": "bool",
          "name": "",
          "type": "bool"
        }
      ],
      "stateMutability": "view",
      "type": "function"
    },
    {
      "inputs": [
        {
          "internalType": "address",
          "name": "to",
          "type": "address"
        },
        {
          "internalType": "uint256",
          "name": "",
          "type": "uint256"
        }
      ],
      "name": "mint",
      "outputs": [],
      "stateMutability": "nonpayable",
      "type": "function"
    },
    {
      "inputs": [],
      "name": "name",
      "outputs": [
        {
          "internalType": "string",
          "name": "",
          "type": "string"
        }
      ],
      "stateMutability": "view",
      "type": "function"
    },
    {
      "inputs": [],
      "name": "owner",
      "outputs": [
        {
          "internalType": "address",
          "name": "",
          "type": "address"
        }
      ],
      "stateMutability": "view",
      "type": "function"
    },
    {
      "inputs": [
        {
          "internalType": "uint256",
          "name": "tokenId",
          "type": "uint256"
        }
      ],
      "name": "ownerOf",
      "outputs": [
        {
          "internalType": "address",
          "name": "",
          "type": "address"
        }
      ],
      "stateMutability": "view",
      "type": "function"
    },
    {
      "inputs": [
        {
          "internalType": "address",
          "name": "_addressToRemove",
          "type": "address"
        }
      ],
      "name": "removeAdmin",
      "outputs": [],
      "stateMutability": "nonpayable",
      "type": "function"
    },
    {
      "inputs": [],
      "name": "renounceOwnership",
      "outputs": [],
      "stateMutability": "nonpayable",
      "type": "function"
    },
    {
      "inputs": [
        {
          "internalType": "address",
          "name": "_userData",
          "type": "address"
        },
        {
          "components": [
            {
              "internalType": "bytes32",
              "name": "publicKey",
              "type": "bytes32"
            },
            {
              "internalType": "bytes",
              "name": "signature",
              "type": "bytes"
            }
          ],
          "internalType": "struct Permission",
          "name": "perm",
          "type": "tuple"
        }
      ],
      "name": "retrieveCriminalRecord",
      "outputs": [
        {
          "internalType": "bytes",
          "name": "",
          "type": "bytes"
        }
      ],
      "stateMutability": "view",
      "type": "function"
    },
    {
      "inputs": [
        {
          "internalType": "address",
          "name": "_patientData",
          "type": "address"
        },
        {
          "components": [
            {
              "internalType": "bytes32",
              "name": "publicKey",
              "type": "bytes32"
            },
            {
              "internalType": "bytes",
              "name": "signature",
              "type": "bytes"
            }
          ],
          "internalType": "struct Permission",
          "name": "perm",
          "type": "tuple"
        }
      ],
      "name": "retrieveDateOfBirth",
      "outputs": [
        {
          "internalType": "bytes",
          "name": "",
          "type": "bytes"
        }
      ],
      "stateMutability": "view",
      "type": "function"
    },
    {
      "inputs": [
        {
          "internalType": "address",
          "name": "_patientData",
          "type": "address"
        },
        {
          "components": [
            {
              "internalType": "bytes32",
              "name": "publicKey",
              "type": "bytes32"
            },
            {
              "internalType": "bytes",
              "name": "signature",
              "type": "bytes"
            }
          ],
          "internalType": "struct Permission",
          "name": "perm",
          "type": "tuple"
        }
      ],
      "name": "retrieveFertilityMeasure",
      "outputs": [
        {
          "internalType": "bytes",
          "name": "",
          "type": "bytes"
        }
      ],
      "stateMutability": "view",
      "type": "function"
    },
    {
      "inputs": [
        {
          "internalType": "address",
          "name": "_patientData",
          "type": "address"
        },
        {
          "components": [
            {
              "internalType": "bytes32",
              "name": "publicKey",
              "type": "bytes32"
            },
            {
              "internalType": "bytes",
              "name": "signature",
              "type": "bytes"
            }
          ],
          "internalType": "struct Permission",
          "name": "perm",
          "type": "tuple"
        }
      ],
      "name": "retrieveLastKnownMedicalData",
      "outputs": [
        {
          "internalType": "bytes",
          "name": "",
          "type": "bytes"
        }
      ],
      "stateMutability": "view",
      "type": "function"
    },
    {
      "inputs": [
        {
          "internalType": "address",
          "name": "_userData",
          "type": "address"
        },
        {
          "components": [
            {
              "internalType": "bytes32",
              "name": "publicKey",
              "type": "bytes32"
            },
            {
              "internalType": "bytes",
              "name": "signature",
              "type": "bytes"
            }
          ],
          "internalType": "struct Permission",
          "name": "perm",
          "type": "tuple"
        }
      ],
      "name": "retrieveMarriageStatus",
      "outputs": [
        {
          "internalType": "bytes",
          "name": "",
          "type": "bytes"
        }
      ],
      "stateMutability": "view",
      "type": "function"
    },
    {
      "inputs": [
        {
          "internalType": "address",
          "name": "_patientData",
          "type": "address"
        },
        {
          "components": [
            {
              "internalType": "bytes32",
              "name": "publicKey",
              "type": "bytes32"
            },
            {
              "internalType": "bytes",
              "name": "signature",
              "type": "bytes"
            }
          ],
          "internalType": "struct Permission",
          "name": "perm",
          "type": "tuple"
        }
      ],
      "name": "retrieveMedicalData",
      "outputs": [
        {
          "internalType": "bytes",
          "name": "",
          "type": "bytes"
        }
      ],
      "stateMutability": "view",
      "type": "function"
    },
    {
      "inputs": [
        {
          "internalType": "address",
          "name": "_userData",
          "type": "address"
        },
        {
          "components": [
            {
              "internalType": "bytes32",
              "name": "publicKey",
              "type": "bytes32"
            },
            {
              "internalType": "bytes",
              "name": "signature",
              "type": "bytes"
            }
          ],
          "internalType": "struct Permission",
          "name": "perm",
          "type": "tuple"
        }
      ],
      "name": "retrieveRating",
      "outputs": [
        {
          "internalType": "bytes",
          "name": "",
          "type": "bytes"
        }
      ],
      "stateMutability": "view",
      "type": "function"
    },
    {
      "inputs": [
        {
          "internalType": "address",
          "name": "_dappAddress",
          "type": "address"
        }
      ],
      "name": "revokeViewingOfData",
      "outputs": [],
      "stateMutability": "nonpayable",
      "type": "function"
    },
    {
      "inputs": [
        {
          "internalType": "address",
          "name": "from",
          "type": "address"
        },
        {
          "internalType": "address",
          "name": "to",
          "type": "address"
        },
        {
          "internalType": "uint256",
          "name": "tokenId",
          "type": "uint256"
        }
      ],
      "name": "safeTransferFrom",
      "outputs": [],
      "stateMutability": "nonpayable",
      "type": "function"
    },
    {
      "inputs": [
        {
          "internalType": "address",
          "name": "",
          "type": "address"
        },
        {
          "internalType": "address",
          "name": "",
          "type": "address"
        },
        {
          "internalType": "uint256",
          "name": "",
          "type": "uint256"
        },
        {
          "internalType": "bytes",
          "name": "",
          "type": "bytes"
        }
      ],
      "name": "safeTransferFrom",
      "outputs": [],
      "stateMutability": "nonpayable",
      "type": "function"
    },
    {
      "inputs": [
        {
          "internalType": "address",
          "name": "operator",
          "type": "address"
        },
        {
          "internalType": "bool",
          "name": "approved",
          "type": "bool"
        }
      ],
      "name": "setApprovalForAll",
      "outputs": [],
      "stateMutability": "nonpayable",
      "type": "function"
    },
    {
      "inputs": [
        {
          "internalType": "bytes4",
          "name": "interfaceId",
          "type": "bytes4"
        }
      ],
      "name": "supportsInterface",
      "outputs": [
        {
          "internalType": "bool",
          "name": "",
          "type": "bool"
        }
      ],
      "stateMutability": "view",
      "type": "function"
    },
    {
      "inputs": [],
      "name": "symbol",
      "outputs": [
        {
          "internalType": "string",
          "name": "",
          "type": "string"
        }
      ],
      "stateMutability": "view",
      "type": "function"
    },
    {
      "inputs": [
        {
          "internalType": "uint256",
          "name": "tokenId",
          "type": "uint256"
        }
      ],
      "name": "tokenURI",
      "outputs": [
        {
          "internalType": "string",
          "name": "",
          "type": "string"
        }
      ],
      "stateMutability": "view",
      "type": "function"
    },
    {
      "inputs": [
        {
          "internalType": "address",
          "name": "",
          "type": "address"
        },
        {
          "internalType": "address",
          "name": "",
          "type": "address"
        },
        {
          "internalType": "uint256",
          "name": "",
          "type": "uint256"
        }
      ],
      "name": "transferFrom",
      "outputs": [],
      "stateMutability": "nonpayable",
      "type": "function"
    },
    {
      "inputs": [
        {
          "internalType": "address",
          "name": "newOwner",
          "type": "address"
        }
      ],
      "name": "transferOwnership",
      "outputs": [],
      "stateMutability": "nonpayable",
      "type": "function"
    },
    {
      "inputs": [
        {
          "internalType": "address",
          "name": "_addressToCheck",
          "type": "address"
        }
      ],
      "name": "viewAddressToTokenID",
      "outputs": [
        {
          "internalType": "uint256",
          "name": "",
          "type": "uint256"
        }
      ],
      "stateMutability": "view",
      "type": "function"
    }
  ],
  "transactionHash": "0x8ad1fbd846cd80196be8bfdd76dce0d7531b779ce444569e321f6720d9ee87de",
  "args": [],
  "numDeployments": 6,
  "solcInputHash": "b0884e32c1f49bb0173ee954754d7546",
  "bytecode": "0x6101606040526200001760006200027e60201b60201c565b6009556200002c60006200029a60201b60201c565b600a556001600b553480156200004157600080fd5b50336040518060400160405280601181526020017f4668656e6978205065726d697373696f6e0000000000000000000000000000008152506040518060400160405280600381526020017f312e3000000000000000000000000000000000000000000000000000000000008152506040518060400160405280601081526020017f506572736f6e616c4964656e74697479000000000000000000000000000000008152506040518060400160405280600381526020017f504949000000000000000000000000000000000000000000000000000000000081525081600090816200012c919062000848565b5080600190816200013e919062000848565b50505062000157600683620002b660201b90919060201c565b610120818152505062000175600782620002b660201b90919060201c565b6101408181525050818051906020012060e08181525050808051906020012061010081815250504660a08181525050620001b46200030e60201b60201c565b608081815250503073ffffffffffffffffffffffffffffffffffffffff1660c08173ffffffffffffffffffffffffffffffffffffffff16815250505050600073ffffffffffffffffffffffffffffffffffffffff168173ffffffffffffffffffffffffffffffffffffffff1603620002665760006040517f1e4fbdf70000000000000000000000000000000000000000000000000000000081526004016200025d919062000974565b60405180910390fd5b62000277816200036b60201b60201c565b5062000d8b565b6000620002938260026200043160201b60201c565b9050919050565b6000620002af8260006200043160201b60201c565b9050919050565b6000602083511015620002dc57620002d483620004e860201b60201c565b905062000308565b82620002ee836200055560201b60201c565b6000019081620002ff919062000848565b5060ff60001b90505b92915050565b60007f8b73c3c69bb8fe3d512ecc4cf759cc79239f7b179b0ffacaa9a75d522b39400f60e05161010051463060405160200162000350959493929190620009bd565b60405160208183030381529060405280519060200120905090565b6000600860009054906101000a900473ffffffffffffffffffffffffffffffffffffffff16905081600860006101000a81548173ffffffffffffffffffffffffffffffffffffffff021916908373ffffffffffffffffffffffffffffffffffffffff1602179055508173ffffffffffffffffffffffffffffffffffffffff168173ffffffffffffffffffffffffffffffffffffffff167f8be0079c531659141344cd1fd0a4f28419497f9722a3daafe3b4186f6b6457e060405160405180910390a35050565b60006060608073ffffffffffffffffffffffffffffffffffffffff166319e1c5c462000463866200055f60201b60201c565b856040518363ffffffff1660e01b81526004016200048392919062000ad2565b600060405180830381865afa158015620004a1573d6000803e3d6000fd5b505050506040513d6000823e3d601f19601f82011682018060405250810190620004cc919062000c2d565b9050620004df81620005c060201b60201c565b91505092915050565b600080829050601f815111156200053857826040517f305a27a90000000000000000000000000000000000000000000000000000000081526004016200052f919062000cd0565b60405180910390fd5b805181620005469062000d1b565b60001c1760001b915050919050565b6000819050919050565b6060602067ffffffffffffffff8111156200057f576200057e620005d9565b5b6040519080825280601f01601f191660200182016040528015620005b25781602001600182028036833780820191505090505b509050816020820152919050565b600060208201519050919050565b600081519050919050565b7f4e487b7100000000000000000000000000000000000000000000000000000000600052604160045260246000fd5b7f4e487b7100000000000000000000000000000000000000000000000000000000600052602260045260246000fd5b600060028204905060018216806200065057607f821691505b60208210810362000666576200066562000608565b5b50919050565b60008190508160005260206000209050919050565b60006020601f8301049050919050565b600082821b905092915050565b600060088302620006d07fffffffffffffffffffffffffffffffffffffffffffffffffffffffffffffffff8262000691565b620006dc868362000691565b95508019841693508086168417925050509392505050565b6000819050919050565b6000819050919050565b600062000729620007236200071d84620006f4565b620006fe565b620006f4565b9050919050565b6000819050919050565b620007458362000708565b6200075d620007548262000730565b8484546200069e565b825550505050565b600090565b6200077462000765565b620007818184846200073a565b505050565b5b81811015620007a9576200079d6000826200076a565b60018101905062000787565b5050565b601f821115620007f857620007c2816200066c565b620007cd8462000681565b81016020851015620007dd578190505b620007f5620007ec8562000681565b83018262000786565b50505b505050565b600082821c905092915050565b60006200081d60001984600802620007fd565b1980831691505092915050565b60006200083883836200080a565b9150826002028217905092915050565b6200085382620005ce565b67ffffffffffffffff8111156200086f576200086e620005d9565b5b6200087b825462000637565b62000888828285620007ad565b600060209050601f831160018114620008c05760008415620008ab578287015190505b620008b785826200082a565b86555062000927565b601f198416620008d0866200066c565b60005b82811015620008fa57848901518255600182019150602085019450602081019050620008d3565b868310156200091a578489015162000916601f8916826200080a565b8355505b6001600288020188555050505b505050505050565b600073ffffffffffffffffffffffffffffffffffffffff82169050919050565b60006200095c826200092f565b9050919050565b6200096e816200094f565b82525050565b60006020820190506200098b600083018462000963565b92915050565b6000819050919050565b620009a68162000991565b82525050565b620009b781620006f4565b82525050565b600060a082019050620009d460008301886200099b565b620009e360208301876200099b565b620009f260408301866200099b565b62000a016060830185620009ac565b62000a10608083018462000963565b9695505050505050565b600081519050919050565b600082825260208201905092915050565b60005b8381101562000a5657808201518184015260208101905062000a39565b60008484015250505050565b6000601f19601f8301169050919050565b600062000a808262000a1a565b62000a8c818562000a25565b935062000a9e81856020860162000a36565b62000aa98162000a62565b840191505092915050565b600060ff82169050919050565b62000acc8162000ab4565b82525050565b6000604082019050818103600083015262000aee818562000a73565b905062000aff602083018462000ac1565b9392505050565b6000604051905090565b600080fd5b600080fd5b600080fd5b600080fd5b62000b2f8262000a62565b810181811067ffffffffffffffff8211171562000b515762000b50620005d9565b5b80604052505050565b600062000b6662000b06565b905062000b74828262000b24565b919050565b600067ffffffffffffffff82111562000b975762000b96620005d9565b5b62000ba28262000a62565b9050602081019050919050565b600062000bc662000bc08462000b79565b62000b5a565b90508281526020810184848401111562000be55762000be462000b1f565b5b62000bf284828562000a36565b509392505050565b600082601f83011262000c125762000c1162000b1a565b5b815162000c2484826020860162000baf565b91505092915050565b60006020828403121562000c465762000c4562000b10565b5b600082015167ffffffffffffffff81111562000c675762000c6662000b15565b5b62000c758482850162000bfa565b91505092915050565b600082825260208201905092915050565b600062000c9c82620005ce565b62000ca8818562000c7e565b935062000cba81856020860162000a36565b62000cc58162000a62565b840191505092915050565b6000602082019050818103600083015262000cec818462000c8f565b905092915050565b6000819050602082019050919050565b600062000d12825162000991565b80915050919050565b600062000d288262000a1a565b8262000d348462000cf4565b905062000d418162000d04565b9250602082101562000d845762000d7f7fffffffffffffffffffffffffffffffffffffffffffffffffffffffffffffffff8360200360080262000691565b831692505b5050919050565b60805160a05160c05160e051610100516101205161014051615a4062000de66000396000613052015260006130170152600061430a015260006142e9015260006137180152600061376e015260006137970152615a406000f3fe608060405234801561001057600080fd5b506004361061023d5760003560e01c8063704802751161013b578063b7cbebf5116100b8578063e50d0cfa1161007c578063e50d0cfa146106e6578063e985e9c514610716578063e9ec26b514610746578063ef339e7914610776578063f2fde38b146107ac5761023d565b8063b7cbebf51461061e578063b88d4fde1461063a578063c4cd230914610656578063c87b56dd14610686578063dcbf6753146106b65761023d565b80638da5cb5b116100ff5780638da5cb5b1461058e57806395d89b41146105ac5780639fa518c0146105ca578063a22cb465146105e6578063aea34e74146106025761023d565b806370480275146104f857806370a0823114610514578063715018a61461054457806372cd05b91461054e57806384b0196e1461056a5761023d565b8063396cbbe5116101c957806349309b991161018d57806349309b991461041c57806349ac06611461044c57806361113ce91461047c5780636352211e146104ac5780636882e06c146104dc5761023d565b8063396cbbe51461036857806340c10f191461039857806341183f52146103b457806342842e0e146103e457806342966c68146104005761023d565b80631785f53c116102105780631785f53c146102dc57806323b05298146102f857806323b872dd1461031457806326456fb7146103305780632fab249f1461034c5761023d565b806301ffc9a71461024257806306fdde0314610272578063081812fc14610290578063095ea7b3146102c0575b600080fd5b61025c60048036038101906102579190614711565b6107c8565b6040516102699190614759565b60405180910390f35b61027a6108aa565b6040516102879190614804565b60405180910390f35b6102aa60048036038101906102a5919061485c565b61093c565b6040516102b791906148ca565b60405180910390f35b6102da60048036038101906102d59190614911565b610958565b005b6102f660048036038101906102f19190614951565b61096e565b005b610312600480360381019061030d9190614b15565b6109d1565b005b61032e60048036038101906103299190614b71565b610b07565b005b61034a60048036038101906103459190614b15565b610b4d565b005b61036660048036038101906103619190614c1c565b610c83565b005b610382600480360381019061037d9190614951565b610d8b565b60405161038f9190614c87565b60405180910390f35b6103b260048036038101906103ad9190614911565b610dd4565b005b6103ce60048036038101906103c99190614d44565b61109c565b6040516103db9190614df5565b60405180910390f35b6103fe60048036038101906103f99190614b71565b611296565b005b61041a6004803603810190610415919061485c565b6112b6565b005b61043660048036038101906104319190614d44565b611395565b6040516104439190614df5565b60405180910390f35b61046660048036038101906104619190614d44565b61158f565b6040516104739190614df5565b60405180910390f35b61049660048036038101906104919190614d44565b611789565b6040516104a39190614df5565b60405180910390f35b6104c660048036038101906104c1919061485c565b611983565b6040516104d391906148ca565b60405180910390f35b6104f660048036038101906104f19190614b15565b611995565b005b610512600480360381019061050d9190614951565b611acb565b005b61052e60048036038101906105299190614951565b611b2e565b60405161053b9190614c87565b60405180910390f35b61054c611be8565b005b61056860048036038101906105639190614951565b611bfc565b005b610572611cdf565b6040516105859796959493929190614f1f565b60405180910390f35b610596611d89565b6040516105a391906148ca565b60405180910390f35b6105b4611db3565b6040516105c19190614804565b60405180910390f35b6105e460048036038101906105df9190614b15565b611e45565b005b61060060048036038101906105fb9190614fcf565b611f7b565b005b61061c60048036038101906106179190614951565b611f91565b005b6106386004803603810190610633919061500f565b612074565b005b610654600480360381019061064f919061509a565b612200565b005b610670600480360381019061066b9190614d44565b612247565b60405161067d9190614df5565b60405180910390f35b6106a0600480360381019061069b919061485c565b612441565b6040516106ad9190614804565b60405180910390f35b6106d060048036038101906106cb9190614951565b6124aa565b6040516106dd9190614759565b60405180910390f35b61070060048036038101906106fb9190614d44565b612578565b60405161070d9190614df5565b60405180910390f35b610730600480360381019061072b919061511d565b612772565b60405161073d9190614759565b60405180910390f35b610760600480360381019061075b9190614d44565b612806565b60405161076d9190614df5565b60405180910390f35b610790600480360381019061078b9190614951565b612a00565b6040516107a397969594939291906151a7565b60405180910390f35b6107c660048036038101906107c19190614951565b612a42565b005b60007f80ac58cd000000000000000000000000000000000000000000000000000000007bffffffffffffffffffffffffffffffffffffffffffffffffffffffff1916827bffffffffffffffffffffffffffffffffffffffffffffffffffffffff1916148061089357507f5b5e139f000000000000000000000000000000000000000000000000000000007bffffffffffffffffffffffffffffffffffffffffffffffffffffffff1916827bffffffffffffffffffffffffffffffffffffffffffffffffffffffff1916145b806108a357506108a282612ac8565b5b9050919050565b6060600080546108b990615245565b80601f01602080910402602001604051908101604052809291908181526020018280546108e590615245565b80156109325780601f1061090757610100808354040283529160200191610932565b820191906000526020600020905b81548152906001019060200180831161091557829003601f168201915b5050505050905090565b600061094782612b32565b5061095182612bba565b9050919050565b61096a8282610965612bf7565b612bff565b5050565b610976612c11565b6000600d60008373ffffffffffffffffffffffffffffffffffffffff1673ffffffffffffffffffffffffffffffffffffffff16815260200190815260200160002060006101000a81548160ff02191690831515021790555050565b600d60003373ffffffffffffffffffffffffffffffffffffffff1673ffffffffffffffffffffffffffffffffffffffff16815260200190815260200160002060009054906101000a900460ff16610a5d576040517f08c379a0000000000000000000000000000000000000000000000000000000008152600401610a54906152c2565b60405180910390fd5b6000610a6883611b2e565b905060018114610aad576040517f08c379a0000000000000000000000000000000000000000000000000000000008152600401610aa49061532e565b60405180910390fd5b6000610ab883612c98565b905080600c60008673ffffffffffffffffffffffffffffffffffffffff1673ffffffffffffffffffffffffffffffffffffffff1681526020019081526020016000206004018190555050505050565b6000610b48576040517f08c379a0000000000000000000000000000000000000000000000000000000008152600401610b3f906153c0565b60405180910390fd5b505050565b600d60003373ffffffffffffffffffffffffffffffffffffffff1673ffffffffffffffffffffffffffffffffffffffff16815260200190815260200160002060009054906101000a900460ff16610bd9576040517f08c379a0000000000000000000000000000000000000000000000000000000008152600401610bd0906152c2565b60405180910390fd5b6000610be483611b2e565b905060018114610c29576040517f08c379a0000000000000000000000000000000000000000000000000000000008152600401610c209061532e565b60405180910390fd5b6000610c3483612c98565b905080600c60008673ffffffffffffffffffffffffffffffffffffffff1673ffffffffffffffffffffffffffffffffffffffff1681526020019081526020016000206003018190555050505050565b610c8b612c11565b6000610c9683611b2e565b905060018114610cdb576040517f08c379a0000000000000000000000000000000000000000000000000000000008152600401610cd29061532e565b60405180910390fd5b6000610ce683612cae565b9050610d3e610d39600c60008773ffffffffffffffffffffffffffffffffffffffff1673ffffffffffffffffffffffffffffffffffffffff16815260200190815260200160002060000154600954612cc4565b612d3d565b80600c60008673ffffffffffffffffffffffffffffffffffffffff1673ffffffffffffffffffffffffffffffffffffffff1681526020019081526020016000206000018190555050505050565b6000600e60008373ffffffffffffffffffffffffffffffffffffffff1673ffffffffffffffffffffffffffffffffffffffff168152602001908152602001600020549050919050565b610ddc612c11565b6000610de783611b2e565b905060018110610e2c576040517f08c379a0000000000000000000000000000000000000000000000000000000008152600401610e2390615478565b60405180910390fd5b610e3883600b54612df2565b600b54600e60008573ffffffffffffffffffffffffffffffffffffffff1673ffffffffffffffffffffffffffffffffffffffff168152602001908152602001600020819055506001600b6000828254610e9191906154c7565b92505081905550600954600c60008573ffffffffffffffffffffffffffffffffffffffff1673ffffffffffffffffffffffffffffffffffffffff16815260200190815260200160002060000181905550600954600c60008573ffffffffffffffffffffffffffffffffffffffff1673ffffffffffffffffffffffffffffffffffffffff16815260200190815260200160002060060181905550600a54600c60008573ffffffffffffffffffffffffffffffffffffffff1673ffffffffffffffffffffffffffffffffffffffff16815260200190815260200160002060010181905550600a54600c60008573ffffffffffffffffffffffffffffffffffffffff1673ffffffffffffffffffffffffffffffffffffffff16815260200190815260200160002060020181905550600a54600c60008573ffffffffffffffffffffffffffffffffffffffff1673ffffffffffffffffffffffffffffffffffffffff16815260200190815260200160002060030181905550600a54600c60008573ffffffffffffffffffffffffffffffffffffffff1673ffffffffffffffffffffffffffffffffffffffff16815260200190815260200160002060040181905550600a54600c60008573ffffffffffffffffffffffffffffffffffffffff1673ffffffffffffffffffffffffffffffffffffffff16815260200190815260200160002060050181905550505050565b60608160006110f67f6bdaeb2d29561f159c7ef98b16b27015fb2aeb87209c7ee656226d912f59927d83600001516040516020016110db9291906154fb565b60405160208183030381529060405280519060200120612e10565b90506000611108828460200151612e2a565b90503373ffffffffffffffffffffffffffffffffffffffff168173ffffffffffffffffffffffffffffffffffffffff161461116f576040517f3093a27700000000000000000000000000000000000000000000000000000000815260040160405180910390fd5b600061117a87610d8b565b905080600f60008973ffffffffffffffffffffffffffffffffffffffff1673ffffffffffffffffffffffffffffffffffffffff16815260200190815260200160002060003373ffffffffffffffffffffffffffffffffffffffff1673ffffffffffffffffffffffffffffffffffffffff168152602001908152602001600020541461123a576040517f08c379a000000000000000000000000000000000000000000000000000000000815260040161123190615596565b60405180910390fd5b61128a600c60008973ffffffffffffffffffffffffffffffffffffffff1673ffffffffffffffffffffffffffffffffffffffff168152602001908152602001600020600301548760000151612e56565b94505050505092915050565b6112b183838360405180602001604052806000815250612200565b505050565b6112be612c11565b60006112c982611983565b90506112d482612e8c565b600c60008273ffffffffffffffffffffffffffffffffffffffff1673ffffffffffffffffffffffffffffffffffffffff1681526020019081526020016000206000808201600090556001820160009055600282016000905560038201600090556004820160009055600582016000905560068201600090555050600e60008273ffffffffffffffffffffffffffffffffffffffff1673ffffffffffffffffffffffffffffffffffffffff168152602001908152602001600020600090555050565b60608160006113ef7f6bdaeb2d29561f159c7ef98b16b27015fb2aeb87209c7ee656226d912f59927d83600001516040516020016113d49291906154fb565b60405160208183030381529060405280519060200120612e10565b90506000611401828460200151612e2a565b90503373ffffffffffffffffffffffffffffffffffffffff168173ffffffffffffffffffffffffffffffffffffffff1614611468576040517f3093a27700000000000000000000000000000000000000000000000000000000815260040160405180910390fd5b600061147387610d8b565b905080600f60008973ffffffffffffffffffffffffffffffffffffffff1673ffffffffffffffffffffffffffffffffffffffff16815260200190815260200160002060003373ffffffffffffffffffffffffffffffffffffffff1673ffffffffffffffffffffffffffffffffffffffff1681526020019081526020016000205414611533576040517f08c379a000000000000000000000000000000000000000000000000000000000815260040161152a90615596565b60405180910390fd5b611583600c60008973ffffffffffffffffffffffffffffffffffffffff1673ffffffffffffffffffffffffffffffffffffffff168152602001908152602001600020600401548760000151612e56565b94505050505092915050565b60608160006115e97f6bdaeb2d29561f159c7ef98b16b27015fb2aeb87209c7ee656226d912f59927d83600001516040516020016115ce9291906154fb565b60405160208183030381529060405280519060200120612e10565b905060006115fb828460200151612e2a565b90503373ffffffffffffffffffffffffffffffffffffffff168173ffffffffffffffffffffffffffffffffffffffff1614611662576040517f3093a27700000000000000000000000000000000000000000000000000000000815260040160405180910390fd5b600061166d87610d8b565b905080600f60008973ffffffffffffffffffffffffffffffffffffffff1673ffffffffffffffffffffffffffffffffffffffff16815260200190815260200160002060003373ffffffffffffffffffffffffffffffffffffffff1673ffffffffffffffffffffffffffffffffffffffff168152602001908152602001600020541461172d576040517f08c379a000000000000000000000000000000000000000000000000000000000815260040161172490615596565b60405180910390fd5b61177d600c60008973ffffffffffffffffffffffffffffffffffffffff1673ffffffffffffffffffffffffffffffffffffffff168152602001908152602001600020600101548760000151612e56565b94505050505092915050565b60608160006117e37f6bdaeb2d29561f159c7ef98b16b27015fb2aeb87209c7ee656226d912f59927d83600001516040516020016117c89291906154fb565b60405160208183030381529060405280519060200120612e10565b905060006117f5828460200151612e2a565b90503373ffffffffffffffffffffffffffffffffffffffff168173ffffffffffffffffffffffffffffffffffffffff161461185c576040517f3093a27700000000000000000000000000000000000000000000000000000000815260040160405180910390fd5b600061186787610d8b565b905080600f60008973ffffffffffffffffffffffffffffffffffffffff1673ffffffffffffffffffffffffffffffffffffffff16815260200190815260200160002060003373ffffffffffffffffffffffffffffffffffffffff1673ffffffffffffffffffffffffffffffffffffffff1681526020019081526020016000205414611927576040517f08c379a000000000000000000000000000000000000000000000000000000000815260040161191e90615596565b60405180910390fd5b611977600c60008973ffffffffffffffffffffffffffffffffffffffff1673ffffffffffffffffffffffffffffffffffffffff168152602001908152602001600020600001548760000151612f12565b94505050505092915050565b600061198e82612b32565b9050919050565b600d60003373ffffffffffffffffffffffffffffffffffffffff1673ffffffffffffffffffffffffffffffffffffffff16815260200190815260200160002060009054906101000a900460ff16611a21576040517f08c379a0000000000000000000000000000000000000000000000000000000008152600401611a18906152c2565b60405180910390fd5b6000611a2c83611b2e565b905060018114611a71576040517f08c379a0000000000000000000000000000000000000000000000000000000008152600401611a689061532e565b60405180910390fd5b6000611a7c83612c98565b905080600c60008673ffffffffffffffffffffffffffffffffffffffff1673ffffffffffffffffffffffffffffffffffffffff1681526020019081526020016000206005018190555050505050565b611ad3612c11565b6001600d60008373ffffffffffffffffffffffffffffffffffffffff1673ffffffffffffffffffffffffffffffffffffffff16815260200190815260200160002060006101000a81548160ff02191690831515021790555050565b60008073ffffffffffffffffffffffffffffffffffffffff168273ffffffffffffffffffffffffffffffffffffffff1603611ba15760006040517f89c62b64000000000000000000000000000000000000000000000000000000008152600401611b9891906148ca565b60405180910390fd5b600360008373ffffffffffffffffffffffffffffffffffffffff1673ffffffffffffffffffffffffffffffffffffffff168152602001908152602001600020549050919050565b611bf0612c11565b611bfa6000612f48565b565b6000611c0733610d8b565b90506000611c1433611b2e565b905060018114611c59576040517f08c379a0000000000000000000000000000000000000000000000000000000008152600401611c509061532e565b60405180910390fd5b81600f60003373ffffffffffffffffffffffffffffffffffffffff1673ffffffffffffffffffffffffffffffffffffffff16815260200190815260200160002060008573ffffffffffffffffffffffffffffffffffffffff1673ffffffffffffffffffffffffffffffffffffffff16815260200190815260200160002081905550505050565b600060608060008060006060611cf361300e565b611cfb613049565b46306000801b600067ffffffffffffffff811115611d1c57611d1b614983565b5b604051908082528060200260200182016040528015611d4a5781602001602082028036833780820191505090505b507f0f00000000000000000000000000000000000000000000000000000000000000959493929190965096509650965096509650965090919293949596565b6000600860009054906101000a900473ffffffffffffffffffffffffffffffffffffffff16905090565b606060018054611dc290615245565b80601f0160208091040260200160405190810160405280929190818152602001828054611dee90615245565b8015611e3b5780601f10611e1057610100808354040283529160200191611e3b565b820191906000526020600020905b815481529060010190602001808311611e1e57829003601f168201915b5050505050905090565b600d60003373ffffffffffffffffffffffffffffffffffffffff1673ffffffffffffffffffffffffffffffffffffffff16815260200190815260200160002060009054906101000a900460ff16611ed1576040517f08c379a0000000000000000000000000000000000000000000000000000000008152600401611ec8906152c2565b60405180910390fd5b6000611edc83611b2e565b905060018114611f21576040517f08c379a0000000000000000000000000000000000000000000000000000000008152600401611f189061532e565b60405180910390fd5b6000611f2c83612c98565b905080600c60008673ffffffffffffffffffffffffffffffffffffffff1673ffffffffffffffffffffffffffffffffffffffff1681526020019081526020016000206002018190555050505050565b611f8d611f86612bf7565b8383613084565b5050565b6000611f9c33610d8b565b90506000611fa933611b2e565b905060018114611fee576040517f08c379a0000000000000000000000000000000000000000000000000000000008152600401611fe59061532e565b60405180910390fd5b81600f60003373ffffffffffffffffffffffffffffffffffffffff1673ffffffffffffffffffffffffffffffffffffffff16815260200190815260200160002060008573ffffffffffffffffffffffffffffffffffffffff1673ffffffffffffffffffffffffffffffffffffffff16815260200190815260200160002081905550505050565b600d60003373ffffffffffffffffffffffffffffffffffffffff1673ffffffffffffffffffffffffffffffffffffffff16815260200190815260200160002060009054906101000a900460ff16612100576040517f08c379a00000000000000000000000000000000000000000000000000000000081526004016120f7906152c2565b60405180910390fd5b600061210b84611b2e565b905060018114612150576040517f08c379a00000000000000000000000000000000000000000000000000000000081526004016121479061532e565b60405180910390fd5b600061215b84612c98565b905080600c60008773ffffffffffffffffffffffffffffffffffffffff1673ffffffffffffffffffffffffffffffffffffffff1681526020019081526020016000206001018190555060006121af84612cae565b905080600c60008873ffffffffffffffffffffffffffffffffffffffff1673ffffffffffffffffffffffffffffffffffffffff16815260200190815260200160002060060181905550505050505050565b6000612241576040517f08c379a0000000000000000000000000000000000000000000000000000000008152600401612238906153c0565b60405180910390fd5b50505050565b60608160006122a17f6bdaeb2d29561f159c7ef98b16b27015fb2aeb87209c7ee656226d912f59927d83600001516040516020016122869291906154fb565b60405160208183030381529060405280519060200120612e10565b905060006122b3828460200151612e2a565b90503373ffffffffffffffffffffffffffffffffffffffff168173ffffffffffffffffffffffffffffffffffffffff161461231a576040517f3093a27700000000000000000000000000000000000000000000000000000000815260040160405180910390fd5b600061232587610d8b565b905080600f60008973ffffffffffffffffffffffffffffffffffffffff1673ffffffffffffffffffffffffffffffffffffffff16815260200190815260200160002060003373ffffffffffffffffffffffffffffffffffffffff1673ffffffffffffffffffffffffffffffffffffffff16815260200190815260200160002054146123e5576040517f08c379a00000000000000000000000000000000000000000000000000000000081526004016123dc90615596565b60405180910390fd5b612435600c60008973ffffffffffffffffffffffffffffffffffffffff1673ffffffffffffffffffffffffffffffffffffffff168152602001908152602001600020600501548760000151612e56565b94505050505092915050565b606061244c82612b32565b5060006124576131f3565b9050600081511161247757604051806020016040528060008152506124a2565b806124818461320a565b6040516020016124929291906155f2565b6040516020818303038152906040525b915050919050565b6000806124b683611b2e565b9050600181146124fb576040517f08c379a00000000000000000000000000000000000000000000000000000000081526004016124f29061532e565b60405180910390fd5b6000612548600c60008673ffffffffffffffffffffffffffffffffffffffff1673ffffffffffffffffffffffffffffffffffffffff168152602001908152602001600020600001546132d8565b63ffffffff1690506000814261255e9190615616565b905060006321db8dc0905080821015945050505050919050565b60608160006125d27f6bdaeb2d29561f159c7ef98b16b27015fb2aeb87209c7ee656226d912f59927d83600001516040516020016125b79291906154fb565b60405160208183030381529060405280519060200120612e10565b905060006125e4828460200151612e2a565b90503373ffffffffffffffffffffffffffffffffffffffff168173ffffffffffffffffffffffffffffffffffffffff161461264b576040517f3093a27700000000000000000000000000000000000000000000000000000000815260040160405180910390fd5b600061265687610d8b565b905080600f60008973ffffffffffffffffffffffffffffffffffffffff1673ffffffffffffffffffffffffffffffffffffffff16815260200190815260200160002060003373ffffffffffffffffffffffffffffffffffffffff1673ffffffffffffffffffffffffffffffffffffffff1681526020019081526020016000205414612716576040517f08c379a000000000000000000000000000000000000000000000000000000000815260040161270d90615596565b60405180910390fd5b612766600c60008973ffffffffffffffffffffffffffffffffffffffff1673ffffffffffffffffffffffffffffffffffffffff168152602001908152602001600020600201548760000151612e56565b94505050505092915050565b6000600560008473ffffffffffffffffffffffffffffffffffffffff1673ffffffffffffffffffffffffffffffffffffffff16815260200190815260200160002060008373ffffffffffffffffffffffffffffffffffffffff1673ffffffffffffffffffffffffffffffffffffffff16815260200190815260200160002060009054906101000a900460ff16905092915050565b60608160006128607f6bdaeb2d29561f159c7ef98b16b27015fb2aeb87209c7ee656226d912f59927d83600001516040516020016128459291906154fb565b60405160208183030381529060405280519060200120612e10565b90506000612872828460200151612e2a565b90503373ffffffffffffffffffffffffffffffffffffffff168173ffffffffffffffffffffffffffffffffffffffff16146128d9576040517f3093a27700000000000000000000000000000000000000000000000000000000815260040160405180910390fd5b60006128e487610d8b565b905080600f60008973ffffffffffffffffffffffffffffffffffffffff1673ffffffffffffffffffffffffffffffffffffffff16815260200190815260200160002060003373ffffffffffffffffffffffffffffffffffffffff1673ffffffffffffffffffffffffffffffffffffffff16815260200190815260200160002054146129a4576040517f08c379a000000000000000000000000000000000000000000000000000000000815260040161299b90615596565b60405180910390fd5b6129f4600c60008973ffffffffffffffffffffffffffffffffffffffff1673ffffffffffffffffffffffffffffffffffffffff168152602001908152602001600020600601548760000151612f12565b94505050505092915050565b600c6020528060005260406000206000915090508060000154908060010154908060020154908060030154908060040154908060050154908060060154905087565b612a4a612c11565b600073ffffffffffffffffffffffffffffffffffffffff168173ffffffffffffffffffffffffffffffffffffffff1603612abc5760006040517f1e4fbdf7000000000000000000000000000000000000000000000000000000008152600401612ab391906148ca565b60405180910390fd5b612ac581612f48565b50565b60007f01ffc9a7000000000000000000000000000000000000000000000000000000007bffffffffffffffffffffffffffffffffffffffffffffffffffffffff1916827bffffffffffffffffffffffffffffffffffffffffffffffffffffffff1916149050919050565b600080612b3e8361339b565b9050600073ffffffffffffffffffffffffffffffffffffffff168173ffffffffffffffffffffffffffffffffffffffff1603612bb157826040517f7e273289000000000000000000000000000000000000000000000000000000008152600401612ba89190614c87565b60405180910390fd5b80915050919050565b60006004600083815260200190815260200160002060009054906101000a900473ffffffffffffffffffffffffffffffffffffffff169050919050565b600033905090565b612c0c83838360016133d8565b505050565b612c19612bf7565b73ffffffffffffffffffffffffffffffffffffffff16612c37611d89565b73ffffffffffffffffffffffffffffffffffffffff1614612c9657612c5a612bf7565b6040517f118cdaa7000000000000000000000000000000000000000000000000000000008152600401612c8d91906148ca565b60405180910390fd5b565b6000612ca7826000015161359d565b9050919050565b6000612cbd82600001516135b1565b9050919050565b6000612ccf836135c5565b612ce057612cdd60006135d2565b92505b612ce9826135c5565b612cfa57612cf760006135d2565b91505b600083905060008390506000612d2f60028484608073ffffffffffffffffffffffffffffffffffffffff166392348b346135e6565b905080935050505092915050565b612d468161367a565b612d5757612d546000613687565b90505b60008190506000612d678261369b565b9050608073ffffffffffffffffffffffffffffffffffffffff16637d23f1db6000836040518363ffffffff1660e01b8152600401612da6929190615666565b600060405180830381865afa158015612dc3573d6000803e3d6000fd5b505050506040513d6000823e3d601f19601f82011682018060405250810190612dec9190615706565b50505050565b612e0c8282604051806020016040528060008152506136f8565b5050565b6000612e23612e1d613714565b836137cb565b9050919050565b600080600080612e3a868661380c565b925092509250612e4a8282613868565b82935050505092915050565b6060612e61836139cc565b612e7257612e6f60006139d9565b92505b6000839050612e83600082856139ed565b91505092915050565b6000612e9b6000836000613aa3565b9050600073ffffffffffffffffffffffffffffffffffffffff168173ffffffffffffffffffffffffffffffffffffffff1603612f0e57816040517f7e273289000000000000000000000000000000000000000000000000000000008152600401612f059190614c87565b60405180910390fd5b5050565b6060612f1d836135c5565b612f2e57612f2b60006135d2565b92505b6000839050612f3f600282856139ed565b91505092915050565b6000600860009054906101000a900473ffffffffffffffffffffffffffffffffffffffff16905081600860006101000a81548173ffffffffffffffffffffffffffffffffffffffff021916908373ffffffffffffffffffffffffffffffffffffffff1602179055508173ffffffffffffffffffffffffffffffffffffffff168173ffffffffffffffffffffffffffffffffffffffff167f8be0079c531659141344cd1fd0a4f28419497f9722a3daafe3b4186f6b6457e060405160405180910390a35050565b606061304460067f0000000000000000000000000000000000000000000000000000000000000000613cbd90919063ffffffff16565b905090565b606061307f60077f0000000000000000000000000000000000000000000000000000000000000000613cbd90919063ffffffff16565b905090565b600073ffffffffffffffffffffffffffffffffffffffff168273ffffffffffffffffffffffffffffffffffffffff16036130f557816040517f5b08ba180000000000000000000000000000000000000000000000000000000081526004016130ec91906148ca565b60405180910390fd5b80600560008573ffffffffffffffffffffffffffffffffffffffff1673ffffffffffffffffffffffffffffffffffffffff16815260200190815260200160002060008473ffffffffffffffffffffffffffffffffffffffff1673ffffffffffffffffffffffffffffffffffffffff16815260200190815260200160002060006101000a81548160ff0219169083151502179055508173ffffffffffffffffffffffffffffffffffffffff168373ffffffffffffffffffffffffffffffffffffffff167f17307eab39ab6107e8899845ad3d59bd9653f200f220920489ca2b5937696c31836040516131e69190614759565b60405180910390a3505050565b606060405180602001604052806000815250905090565b60606000600161321984613d6d565b01905060008167ffffffffffffffff81111561323857613237614983565b5b6040519080825280601f01601f19166020018201604052801561326a5781602001600182028036833780820191505090505b509050600082602001820190505b6001156132cd578080600190039150507f3031323334353637383961626364656600000000000000000000000000000000600a86061a8153600a85816132c1576132c061574f565b5b04945060008503613278575b819350505050919050565b60006132e3826135c5565b6132f4576132f160006135d2565b91505b600082905060006133048261369b565b90506000608073ffffffffffffffffffffffffffffffffffffffff166373cc01546002846040518363ffffffff1660e01b8152600401613345929190615666565b602060405180830381865afa158015613362573d6000803e3d6000fd5b505050506040513d601f19601f820116820180604052508101906133869190615793565b905061339181613ec0565b9350505050919050565b60006002600083815260200190815260200160002060009054906101000a900473ffffffffffffffffffffffffffffffffffffffff169050919050565b80806134115750600073ffffffffffffffffffffffffffffffffffffffff168273ffffffffffffffffffffffffffffffffffffffff1614155b1561354557600061342184612b32565b9050600073ffffffffffffffffffffffffffffffffffffffff168373ffffffffffffffffffffffffffffffffffffffff161415801561348c57508273ffffffffffffffffffffffffffffffffffffffff168173ffffffffffffffffffffffffffffffffffffffff1614155b801561349f575061349d8184612772565b155b156134e157826040517fa9fbf51f0000000000000000000000000000000000000000000000000000000081526004016134d891906148ca565b60405180910390fd5b811561354357838573ffffffffffffffffffffffffffffffffffffffff168273ffffffffffffffffffffffffffffffffffffffff167f8c5be1e5ebec7d5bd14f71427d1e84f3dd0314c0f7b2291e5b200ac8c7c3b92560405160405180910390a45b505b836004600085815260200190815260200160002060006101000a81548173ffffffffffffffffffffffffffffffffffffffff021916908373ffffffffffffffffffffffffffffffffffffffff16021790555050505050565b60006135aa826000613eca565b9050919050565b60006135be826002613eca565b9050919050565b6000808214159050919050565b60006135df826002613f64565b9050919050565b600060608383886135f68961369b565b6135ff8961369b565b6040518463ffffffff1660e01b815260040161361d939291906157c0565b600060405180830381865afa15801561363a573d6000803e3d6000fd5b505050506040513d6000823e3d601f19601f820116820180604052508101906136639190615706565b905061366e81614006565b91505095945050505050565b6000808214159050919050565b6000613694826000613f64565b9050919050565b6060602067ffffffffffffffff8111156136b8576136b7614983565b5b6040519080825280601f01601f1916602001820160405280156136ea5781602001600182028036833780820191505090505b509050816020820152919050565b6137028383614014565b61370f600084848461410d565b505050565b60007f000000000000000000000000000000000000000000000000000000000000000073ffffffffffffffffffffffffffffffffffffffff163073ffffffffffffffffffffffffffffffffffffffff1614801561379057507f000000000000000000000000000000000000000000000000000000000000000046145b156137bd577f000000000000000000000000000000000000000000000000000000000000000090506137c8565b6137c56142c4565b90505b90565b60006040517f190100000000000000000000000000000000000000000000000000000000000081528360028201528260228201526042812091505092915050565b600080600060418451036138515760008060006020870151925060408701519150606087015160001a90506138438882858561435a565b955095509550505050613861565b60006002855160001b9250925092505b9250925092565b6000600381111561387c5761387b615805565b5b82600381111561388f5761388e615805565b5b03156139c857600160038111156138a9576138a8615805565b5b8260038111156138bc576138bb615805565b5b036138f3576040517ff645eedf00000000000000000000000000000000000000000000000000000000815260040160405180910390fd5b6002600381111561390757613906615805565b5b82600381111561391a57613919615805565b5b0361395f578060001c6040517ffce698f70000000000000000000000000000000000000000000000000000000081526004016139569190614c87565b60405180910390fd5b60038081111561397257613971615805565b5b82600381111561398557613984615805565b5b036139c757806040517fd78bce0c0000000000000000000000000000000000000000000000000000000081526004016139be9190615834565b60405180910390fd5b5b5050565b6000808214159050919050565b60006139e6826000613f64565b9050919050565b6060608073ffffffffffffffffffffffffffffffffffffffff1663a1848ff385613a168661369b565b85604051602001613a279190615870565b6040516020818303038152906040526040518463ffffffff1660e01b8152600401613a54939291906157c0565b600060405180830381865afa158015613a71573d6000803e3d6000fd5b505050506040513d6000823e3d601f19601f82011682018060405250810190613a9a9190615706565b90509392505050565b600080613aaf8461339b565b9050600073ffffffffffffffffffffffffffffffffffffffff168373ffffffffffffffffffffffffffffffffffffffff1614613af157613af081848661444e565b5b600073ffffffffffffffffffffffffffffffffffffffff168173ffffffffffffffffffffffffffffffffffffffff1614613b8257613b336000856000806133d8565b6001600360008373ffffffffffffffffffffffffffffffffffffffff1673ffffffffffffffffffffffffffffffffffffffff168152602001908152602001600020600082825403925050819055505b600073ffffffffffffffffffffffffffffffffffffffff168573ffffffffffffffffffffffffffffffffffffffff1614613c05576001600360008773ffffffffffffffffffffffffffffffffffffffff1673ffffffffffffffffffffffffffffffffffffffff168152602001908152602001600020600082825401925050819055505b846002600086815260200190815260200160002060006101000a81548173ffffffffffffffffffffffffffffffffffffffff021916908373ffffffffffffffffffffffffffffffffffffffff160217905550838573ffffffffffffffffffffffffffffffffffffffff168273ffffffffffffffffffffffffffffffffffffffff167fddf252ad1be2c89b69c2b068fc378daa952ba7f163c4a11628f55a4df523b3ef60405160405180910390a4809150509392505050565b606060ff60001b8314613cda57613cd383614512565b9050613d67565b818054613ce690615245565b80601f0160208091040260200160405190810160405280929190818152602001828054613d1290615245565b8015613d5f5780601f10613d3457610100808354040283529160200191613d5f565b820191906000526020600020905b815481529060010190602001808311613d4257829003601f168201915b505050505090505b92915050565b600080600090507a184f03e93ff9f4daa797ed6e38ed64bf6a1f0100000000000000008310613dcb577a184f03e93ff9f4daa797ed6e38ed64bf6a1f0100000000000000008381613dc157613dc061574f565b5b0492506040810190505b6d04ee2d6d415b85acef81000000008310613e08576d04ee2d6d415b85acef81000000008381613dfe57613dfd61574f565b5b0492506020810190505b662386f26fc100008310613e3757662386f26fc100008381613e2d57613e2c61574f565b5b0492506010810190505b6305f5e1008310613e60576305f5e1008381613e5657613e5561574f565b5b0492506008810190505b6127108310613e85576127108381613e7b57613e7a61574f565b5b0492506004810190505b60648310613ea85760648381613e9e57613e9d61574f565b5b0492506002810190505b600a8310613eb7576001810190505b80915050919050565b6000819050919050565b60006060608073ffffffffffffffffffffffffffffffffffffffff16635fa55ca784866040518363ffffffff1660e01b8152600401613f0a929190615666565b600060405180830381865afa158015613f27573d6000803e3d6000fd5b505050506040513d6000823e3d601f19601f82011682018060405250810190613f509190615706565b9050613f5b81614586565b91505092915050565b60006060608073ffffffffffffffffffffffffffffffffffffffff166319e1c5c4613f8e8661369b565b856040518363ffffffff1660e01b8152600401613fac92919061588b565b600060405180830381865afa158015613fc9573d6000803e3d6000fd5b505050506040513d6000823e3d601f19601f82011682018060405250810190613ff29190615706565b9050613ffd81614586565b91505092915050565b600060208201519050919050565b600073ffffffffffffffffffffffffffffffffffffffff168273ffffffffffffffffffffffffffffffffffffffff16036140865760006040517f64a0ae9200000000000000000000000000000000000000000000000000000000815260040161407d91906148ca565b60405180910390fd5b600061409483836000613aa3565b9050600073ffffffffffffffffffffffffffffffffffffffff168173ffffffffffffffffffffffffffffffffffffffff16146141085760006040517f73c6ac6e0000000000000000000000000000000000000000000000000000000081526004016140ff91906148ca565b60405180910390fd5b505050565b60008373ffffffffffffffffffffffffffffffffffffffff163b11156142be578273ffffffffffffffffffffffffffffffffffffffff1663150b7a02614151612bf7565b8685856040518563ffffffff1660e01b815260040161417394939291906158bb565b6020604051808303816000875af19250505080156141af57506040513d601f19601f820116820180604052508101906141ac919061591c565b60015b614233573d80600081146141df576040519150601f19603f3d011682016040523d82523d6000602084013e6141e4565b606091505b50600081510361422b57836040517f64a0ae9200000000000000000000000000000000000000000000000000000000815260040161422291906148ca565b60405180910390fd5b805181602001fd5b63150b7a0260e01b7bffffffffffffffffffffffffffffffffffffffffffffffffffffffff1916817bffffffffffffffffffffffffffffffffffffffffffffffffffffffff1916146142bc57836040517f64a0ae920000000000000000000000000000000000000000000000000000000081526004016142b391906148ca565b60405180910390fd5b505b50505050565b60007f8b73c3c69bb8fe3d512ecc4cf759cc79239f7b179b0ffacaa9a75d522b39400f7f00000000000000000000000000000000000000000000000000000000000000007f0000000000000000000000000000000000000000000000000000000000000000463060405160200161433f959493929190615949565b60405160208183030381529060405280519060200120905090565b60008060007f7fffffffffffffffffffffffffffffff5d576e7357a4501ddfe92f46681b20a08460001c111561439a576000600385925092509250614444565b6000600188888888604051600081526020016040526040516143bf949392919061599c565b6020604051602081039080840390855afa1580156143e1573d6000803e3d6000fd5b505050602060405103519050600073ffffffffffffffffffffffffffffffffffffffff168173ffffffffffffffffffffffffffffffffffffffff160361443557600060016000801b93509350935050614444565b8060008060001b935093509350505b9450945094915050565b614459838383614594565b61450d57600073ffffffffffffffffffffffffffffffffffffffff168373ffffffffffffffffffffffffffffffffffffffff16036144ce57806040517f7e2732890000000000000000000000000000000000000000000000000000000081526004016144c59190614c87565b60405180910390fd5b81816040517f177e802f0000000000000000000000000000000000000000000000000000000081526004016145049291906159e1565b60405180910390fd5b505050565b6060600061451f83614655565b90506000602067ffffffffffffffff81111561453e5761453d614983565b5b6040519080825280601f01601f1916602001820160405280156145705781602001600182028036833780820191505090505b5090508181528360208201528092505050919050565b600060208201519050919050565b60008073ffffffffffffffffffffffffffffffffffffffff168373ffffffffffffffffffffffffffffffffffffffff161415801561464c57508273ffffffffffffffffffffffffffffffffffffffff168473ffffffffffffffffffffffffffffffffffffffff16148061460d575061460c8484612772565b5b8061464b57508273ffffffffffffffffffffffffffffffffffffffff1661463383612bba565b73ffffffffffffffffffffffffffffffffffffffff16145b5b90509392505050565b60008060ff8360001c169050601f81111561469c576040517fb3512b0c00000000000000000000000000000000000000000000000000000000815260040160405180910390fd5b80915050919050565b6000604051905090565b600080fd5b600080fd5b60007fffffffff0000000000000000000000000000000000000000000000000000000082169050919050565b6146ee816146b9565b81146146f957600080fd5b50565b60008135905061470b816146e5565b92915050565b600060208284031215614727576147266146af565b5b6000614735848285016146fc565b91505092915050565b60008115159050919050565b6147538161473e565b82525050565b600060208201905061476e600083018461474a565b92915050565b600081519050919050565b600082825260208201905092915050565b60005b838110156147ae578082015181840152602081019050614793565b60008484015250505050565b6000601f19601f8301169050919050565b60006147d682614774565b6147e0818561477f565b93506147f0818560208601614790565b6147f9816147ba565b840191505092915050565b6000602082019050818103600083015261481e81846147cb565b905092915050565b6000819050919050565b61483981614826565b811461484457600080fd5b50565b60008135905061485681614830565b92915050565b600060208284031215614872576148716146af565b5b600061488084828501614847565b91505092915050565b600073ffffffffffffffffffffffffffffffffffffffff82169050919050565b60006148b482614889565b9050919050565b6148c4816148a9565b82525050565b60006020820190506148df60008301846148bb565b92915050565b6148ee816148a9565b81146148f957600080fd5b50565b60008135905061490b816148e5565b92915050565b60008060408385031215614928576149276146af565b5b6000614936858286016148fc565b925050602061494785828601614847565b9150509250929050565b600060208284031215614967576149666146af565b5b6000614975848285016148fc565b91505092915050565b600080fd5b7f4e487b7100000000000000000000000000000000000000000000000000000000600052604160045260246000fd5b6149bb826147ba565b810181811067ffffffffffffffff821117156149da576149d9614983565b5b80604052505050565b60006149ed6146a5565b90506149f982826149b2565b919050565b600080fd5b600080fd5b600080fd5b600067ffffffffffffffff821115614a2857614a27614983565b5b614a31826147ba565b9050602081019050919050565b82818337600083830152505050565b6000614a60614a5b84614a0d565b6149e3565b905082815260208101848484011115614a7c57614a7b614a08565b5b614a87848285614a3e565b509392505050565b600082601f830112614aa457614aa3614a03565b5b8135614ab4848260208601614a4d565b91505092915050565b600060208284031215614ad357614ad261497e565b5b614add60206149e3565b9050600082013567ffffffffffffffff811115614afd57614afc6149fe565b5b614b0984828501614a8f565b60008301525092915050565b60008060408385031215614b2c57614b2b6146af565b5b6000614b3a858286016148fc565b925050602083013567ffffffffffffffff811115614b5b57614b5a6146b4565b5b614b6785828601614abd565b9150509250929050565b600080600060608486031215614b8a57614b896146af565b5b6000614b98868287016148fc565b9350506020614ba9868287016148fc565b9250506040614bba86828701614847565b9150509250925092565b600060208284031215614bda57614bd961497e565b5b614be460206149e3565b9050600082013567ffffffffffffffff811115614c0457614c036149fe565b5b614c1084828501614a8f565b60008301525092915050565b60008060408385031215614c3357614c326146af565b5b6000614c41858286016148fc565b925050602083013567ffffffffffffffff811115614c6257614c616146b4565b5b614c6e85828601614bc4565b9150509250929050565b614c8181614826565b82525050565b6000602082019050614c9c6000830184614c78565b92915050565b6000819050919050565b614cb581614ca2565b8114614cc057600080fd5b50565b600081359050614cd281614cac565b92915050565b600060408284031215614cee57614ced61497e565b5b614cf860406149e3565b90506000614d0884828501614cc3565b600083015250602082013567ffffffffffffffff811115614d2c57614d2b6149fe565b5b614d3884828501614a8f565b60208301525092915050565b60008060408385031215614d5b57614d5a6146af565b5b6000614d69858286016148fc565b925050602083013567ffffffffffffffff811115614d8a57614d896146b4565b5b614d9685828601614cd8565b9150509250929050565b600081519050919050565b600082825260208201905092915050565b6000614dc782614da0565b614dd18185614dab565b9350614de1818560208601614790565b614dea816147ba565b840191505092915050565b60006020820190508181036000830152614e0f8184614dbc565b905092915050565b60007fff0000000000000000000000000000000000000000000000000000000000000082169050919050565b614e4c81614e17565b82525050565b614e5b81614ca2565b82525050565b600081519050919050565b600082825260208201905092915050565b6000819050602082019050919050565b614e9681614826565b82525050565b6000614ea88383614e8d565b60208301905092915050565b6000602082019050919050565b6000614ecc82614e61565b614ed68185614e6c565b9350614ee183614e7d565b8060005b83811015614f12578151614ef98882614e9c565b9750614f0483614eb4565b925050600181019050614ee5565b5085935050505092915050565b600060e082019050614f34600083018a614e43565b8181036020830152614f4681896147cb565b90508181036040830152614f5a81886147cb565b9050614f696060830187614c78565b614f7660808301866148bb565b614f8360a0830185614e52565b81810360c0830152614f958184614ec1565b905098975050505050505050565b614fac8161473e565b8114614fb757600080fd5b50565b600081359050614fc981614fa3565b92915050565b60008060408385031215614fe657614fe56146af565b5b6000614ff4858286016148fc565b925050602061500585828601614fba565b9150509250929050565b600080600060608486031215615028576150276146af565b5b6000615036868287016148fc565b935050602084013567ffffffffffffffff811115615057576150566146b4565b5b61506386828701614abd565b925050604084013567ffffffffffffffff811115615084576150836146b4565b5b61509086828701614bc4565b9150509250925092565b600080600080608085870312156150b4576150b36146af565b5b60006150c2878288016148fc565b94505060206150d3878288016148fc565b93505060406150e487828801614847565b925050606085013567ffffffffffffffff811115615105576151046146b4565b5b61511187828801614a8f565b91505092959194509250565b60008060408385031215615134576151336146af565b5b6000615142858286016148fc565b9250506020615153858286016148fc565b9150509250929050565b6000819050919050565b600061518261517d61517884614826565b61515d565b614826565b9050919050565b61519281615167565b82525050565b6151a181615167565b82525050565b600060e0820190506151bc600083018a615189565b6151c96020830189615198565b6151d66040830188615198565b6151e36060830187615198565b6151f06080830186615198565b6151fd60a0830185615198565b61520a60c0830184615189565b98975050505050505050565b7f4e487b7100000000000000000000000000000000000000000000000000000000600052602260045260246000fd5b6000600282049050600182168061525d57607f821691505b6020821081036152705761526f615216565b5b50919050565b7f43616c6c6572206973206e6f7420616e2061646d696e00000000000000000000600082015250565b60006152ac60168361477f565b91506152b782615276565b602082019050919050565b600060208201905081810360008301526152db8161529f565b9050919050565b7f5573657220686173206e6f74206d696e746564206120746f6b656e2100000000600082015250565b6000615318601c8361477f565b9150615323826152e2565b602082019050919050565b600060208201905081810360008301526153478161530b565b9050919050565b7f536f756c626f756e6420746f6b656e732063616e6e6f74206265207472616e7360008201527f6665727265642e00000000000000000000000000000000000000000000000000602082015250565b60006153aa60278361477f565b91506153b58261534e565b604082019050919050565b600060208201905081810360008301526153d98161539d565b9050919050565b7f546f6b656e20616c7265616479206d696e74656420666f72207468697320757360008201527f65722c20706c65617365206275726e206265666f7265206d696e74696e67206160208201527f6761696e21000000000000000000000000000000000000000000000000000000604082015250565b600061546260458361477f565b915061546d826153e0565b606082019050919050565b6000602082019050818103600083015261549181615455565b9050919050565b7f4e487b7100000000000000000000000000000000000000000000000000000000600052601160045260246000fd5b60006154d282614826565b91506154dd83614826565b92508282019050808211156154f5576154f4615498565b5b92915050565b60006040820190506155106000830185614e52565b61551d6020830184614e52565b9392505050565b7f6e6f207065726d697373696f6e206772616e74656420746f207669657720646160008201527f7461000000000000000000000000000000000000000000000000000000000000602082015250565b600061558060228361477f565b915061558b82615524565b604082019050919050565b600060208201905081810360008301526155af81615573565b9050919050565b600081905092915050565b60006155cc82614774565b6155d681856155b6565b93506155e6818560208601614790565b80840191505092915050565b60006155fe82856155c1565b915061560a82846155c1565b91508190509392505050565b600061562182614826565b915061562c83614826565b925082820390508181111561564457615643615498565b5b92915050565b600060ff82169050919050565b6156608161564a565b82525050565b600060408201905061567b6000830185615657565b818103602083015261568d8184614dbc565b90509392505050565b60006156a96156a484614a0d565b6149e3565b9050828152602081018484840111156156c5576156c4614a08565b5b6156d0848285614790565b509392505050565b600082601f8301126156ed576156ec614a03565b5b81516156fd848260208601615696565b91505092915050565b60006020828403121561571c5761571b6146af565b5b600082015167ffffffffffffffff81111561573a576157396146b4565b5b615746848285016156d8565b91505092915050565b7f4e487b7100000000000000000000000000000000000000000000000000000000600052601260045260246000fd5b60008151905061578d81614830565b92915050565b6000602082840312156157a9576157a86146af565b5b60006157b78482850161577e565b91505092915050565b60006060820190506157d56000830186615657565b81810360208301526157e78185614dbc565b905081810360408301526157fb8184614dbc565b9050949350505050565b7f4e487b7100000000000000000000000000000000000000000000000000000000600052602160045260246000fd5b60006020820190506158496000830184614e52565b92915050565b6000819050919050565b61586a61586582614ca2565b61584f565b82525050565b600061587c8284615859565b60208201915081905092915050565b600060408201905081810360008301526158a58185614dbc565b90506158b46020830184615657565b9392505050565b60006080820190506158d060008301876148bb565b6158dd60208301866148bb565b6158ea6040830185614c78565b81810360608301526158fc8184614dbc565b905095945050505050565b600081519050615916816146e5565b92915050565b600060208284031215615932576159316146af565b5b600061594084828501615907565b91505092915050565b600060a08201905061595e6000830188614e52565b61596b6020830187614e52565b6159786040830186614e52565b6159856060830185614c78565b61599260808301846148bb565b9695505050505050565b60006080820190506159b16000830187614e52565b6159be6020830186615657565b6159cb6040830185614e52565b6159d86060830184614e52565b95945050505050565b60006040820190506159f660008301856148bb565b615a036020830184614c78565b939250505056fea26469706673582212208274332052591f472842e76f3591bdbc661f74bf936fa01be284817cde9d4f3564736f6c63430008170033",
  "devdoc": {
    "errors": {
      "ECDSAInvalidSignature()": [
        {
          "details": "The signature derives the `address(0)`."
        }
      ],
      "ECDSAInvalidSignatureLength(uint256)": [
        {
          "details": "The signature has an invalid length."
        }
      ],
      "ECDSAInvalidSignatureS(bytes32)": [
        {
          "details": "The signature has an S value that is in the upper half order."
        }
      ],
      "ERC721IncorrectOwner(address,uint256,address)": [
        {
          "details": "Indicates an error related to the ownership over a particular token. Used in transfers.",
          "params": {
            "owner": "Address of the current owner of a token.",
            "sender": "Address whose tokens are being transferred.",
            "tokenId": "Identifier number of a token."
          }
        }
      ],
      "ERC721InsufficientApproval(address,uint256)": [
        {
          "details": "Indicates a failure with the `operator`s approval. Used in transfers.",
          "params": {
            "operator": "Address that may be allowed to operate on tokens without being their owner.",
            "tokenId": "Identifier number of a token."
          }
        }
      ],
      "ERC721InvalidApprover(address)": [
        {
          "details": "Indicates a failure with the `approver` of a token to be approved. Used in approvals.",
          "params": {
            "approver": "Address initiating an approval operation."
          }
        }
      ],
      "ERC721InvalidOperator(address)": [
        {
          "details": "Indicates a failure with the `operator` to be approved. Used in approvals.",
          "params": {
            "operator": "Address that may be allowed to operate on tokens without being their owner."
          }
        }
      ],
      "ERC721InvalidOwner(address)": [
        {
          "details": "Indicates that an address can't be an owner. For example, `address(0)` is a forbidden owner in EIP-20. Used in balance queries.",
          "params": {
            "owner": "Address of the current owner of a token."
          }
        }
      ],
      "ERC721InvalidReceiver(address)": [
        {
          "details": "Indicates a failure with the token `receiver`. Used in transfers.",
          "params": {
            "receiver": "Address to which tokens are being transferred."
          }
        }
      ],
      "ERC721InvalidSender(address)": [
        {
          "details": "Indicates a failure with the token `sender`. Used in transfers.",
          "params": {
            "sender": "Address whose tokens are being transferred."
          }
        }
      ],
      "ERC721NonexistentToken(uint256)": [
        {
          "details": "Indicates a `tokenId` whose `owner` is the zero address.",
          "params": {
            "tokenId": "Identifier number of a token."
          }
        }
      ],
      "OwnableInvalidOwner(address)": [
        {
          "details": "The owner is not a valid owner account. (eg. `address(0)`)"
        }
      ],
      "OwnableUnauthorizedAccount(address)": [
        {
          "details": "The caller account is not authorized to perform an operation."
        }
      ]
    },
    "events": {
      "Approval(address,address,uint256)": {
        "details": "Emitted when `owner` enables `approved` to manage the `tokenId` token."
      },
      "ApprovalForAll(address,address,bool)": {
        "details": "Emitted when `owner` enables or disables (`approved`) `operator` to manage all of its assets."
      },
      "EIP712DomainChanged()": {
        "details": "MAY be emitted to signal that the domain could have changed."
      },
      "Transfer(address,address,uint256)": {
        "details": "Emitted when `tokenId` token is transferred from `from` to `to`."
      }
    },
    "kind": "dev",
    "methods": {
      "approve(address,uint256)": {
        "details": "See {IERC721-approve}."
      },
      "balanceOf(address)": {
        "details": "See {IERC721-balanceOf}."
      },
      "eip712Domain()": {
        "details": "See {IERC-5267}."
      },
      "getApproved(uint256)": {
        "details": "See {IERC721-getApproved}."
      },
      "isApprovedForAll(address,address)": {
        "details": "See {IERC721-isApprovedForAll}."
      },
      "name()": {
        "details": "See {IERC721Metadata-name}."
      },
      "owner()": {
        "details": "Returns the address of the current owner."
      },
      "ownerOf(uint256)": {
        "details": "See {IERC721-ownerOf}."
      },
      "renounceOwnership()": {
        "details": "Leaves the contract without owner. It will not be possible to call `onlyOwner` functions. Can only be called by the current owner. NOTE: Renouncing ownership will leave the contract without an owner, thereby disabling any functionality that is only available to the owner."
      },
      "safeTransferFrom(address,address,uint256)": {
        "details": "See {IERC721-safeTransferFrom}."
      },
      "setApprovalForAll(address,bool)": {
        "details": "See {IERC721-setApprovalForAll}."
      },
      "supportsInterface(bytes4)": {
        "details": "See {IERC165-supportsInterface}."
      },
      "symbol()": {
        "details": "See {IERC721Metadata-symbol}."
      },
      "tokenURI(uint256)": {
        "details": "See {IERC721Metadata-tokenURI}."
      },
      "transferOwnership(address)": {
        "details": "Transfers ownership of the contract to a new account (`newOwner`). Can only be called by the current owner."
      }
    },
    "version": 1
  },
  "userdoc": {
    "errors": {
      "SignerNotMessageSender()": [
        {
          "notice": "Emitted when the signer is not the message sender"
        }
      ],
      "SignerNotOwner()": [
        {
          "notice": "Emitted when the signer is not the specified owner"
        }
      ]
    },
    "kind": "user",
    "methods": {},
    "version": 1
  },
  "storageLayout": {
    "storage": [
      {
        "astId": 9145,
        "contract": "contracts/soulbound.sol:SoulBound",
        "label": "_name",
        "offset": 0,
        "slot": "0",
        "type": "t_string_storage"
      },
      {
        "astId": 9147,
        "contract": "contracts/soulbound.sol:SoulBound",
        "label": "_symbol",
        "offset": 0,
        "slot": "1",
        "type": "t_string_storage"
      },
      {
        "astId": 9151,
        "contract": "contracts/soulbound.sol:SoulBound",
        "label": "_owners",
        "offset": 0,
        "slot": "2",
        "type": "t_mapping(t_uint256,t_address)"
      },
      {
        "astId": 9155,
        "contract": "contracts/soulbound.sol:SoulBound",
        "label": "_balances",
        "offset": 0,
        "slot": "3",
        "type": "t_mapping(t_address,t_uint256)"
      },
      {
        "astId": 9159,
        "contract": "contracts/soulbound.sol:SoulBound",
        "label": "_tokenApprovals",
        "offset": 0,
        "slot": "4",
        "type": "t_mapping(t_uint256,t_address)"
      },
      {
        "astId": 9165,
        "contract": "contracts/soulbound.sol:SoulBound",
        "label": "_operatorApprovals",
        "offset": 0,
        "slot": "5",
        "type": "t_mapping(t_address,t_mapping(t_address,t_bool))"
      },
      {
        "astId": 11281,
        "contract": "contracts/soulbound.sol:SoulBound",
        "label": "_nameFallback",
        "offset": 0,
        "slot": "6",
        "type": "t_string_storage"
      },
      {
        "astId": 11283,
        "contract": "contracts/soulbound.sol:SoulBound",
        "label": "_versionFallback",
        "offset": 0,
        "slot": "7",
        "type": "t_string_storage"
      },
      {
        "astId": 8811,
        "contract": "contracts/soulbound.sol:SoulBound",
        "label": "_owner",
        "offset": 0,
        "slot": "8",
        "type": "t_address"
      },
      {
        "astId": 12781,
        "contract": "contracts/soulbound.sol:SoulBound",
        "label": "_zero32",
        "offset": 0,
        "slot": "9",
        "type": "t_userDefinedValueType(euint32)12"
      },
      {
        "astId": 12788,
        "contract": "contracts/soulbound.sol:SoulBound",
        "label": "_zero8",
        "offset": 0,
        "slot": "10",
        "type": "t_userDefinedValueType(euint8)8"
      },
      {
        "astId": 12791,
        "contract": "contracts/soulbound.sol:SoulBound",
        "label": "tokenIDCount",
        "offset": 0,
        "slot": "11",
        "type": "t_uint256"
      },
      {
        "astId": 12796,
        "contract": "contracts/soulbound.sol:SoulBound",
        "label": "_identitylist",
        "offset": 0,
        "slot": "12",
        "type": "t_mapping(t_address,t_struct(IdentityDetails)12774_storage)"
      },
      {
        "astId": 12800,
        "contract": "contracts/soulbound.sol:SoulBound",
        "label": "_admin",
        "offset": 0,
        "slot": "13",
        "type": "t_mapping(t_address,t_bool)"
      },
      {
        "astId": 12804,
        "contract": "contracts/soulbound.sol:SoulBound",
        "label": "_addressToTokenID",
        "offset": 0,
        "slot": "14",
        "type": "t_mapping(t_address,t_uint256)"
      },
      {
        "astId": 12810,
        "contract": "contracts/soulbound.sol:SoulBound",
        "label": "_approvedViewers",
        "offset": 0,
        "slot": "15",
        "type": "t_mapping(t_address,t_mapping(t_address,t_uint256))"
      }
    ],
    "types": {
      "t_address": {
        "encoding": "inplace",
        "label": "address",
        "numberOfBytes": "20"
      },
      "t_bool": {
        "encoding": "inplace",
        "label": "bool",
        "numberOfBytes": "1"
      },
      "t_mapping(t_address,t_bool)": {
        "encoding": "mapping",
        "key": "t_address",
        "label": "mapping(address => bool)",
        "numberOfBytes": "32",
        "value": "t_bool"
      },
      "t_mapping(t_address,t_mapping(t_address,t_bool))": {
        "encoding": "mapping",
        "key": "t_address",
        "label": "mapping(address => mapping(address => bool))",
        "numberOfBytes": "32",
        "value": "t_mapping(t_address,t_bool)"
      },
      "t_mapping(t_address,t_mapping(t_address,t_uint256))": {
        "encoding": "mapping",
        "key": "t_address",
        "label": "mapping(address => mapping(address => uint256))",
        "numberOfBytes": "32",
        "value": "t_mapping(t_address,t_uint256)"
      },
      "t_mapping(t_address,t_struct(IdentityDetails)12774_storage)": {
        "encoding": "mapping",
        "key": "t_address",
        "label": "mapping(address => struct SoulBound.IdentityDetails)",
        "numberOfBytes": "32",
        "value": "t_struct(IdentityDetails)12774_storage"
      },
      "t_mapping(t_address,t_uint256)": {
        "encoding": "mapping",
        "key": "t_address",
        "label": "mapping(address => uint256)",
        "numberOfBytes": "32",
        "value": "t_uint256"
      },
      "t_mapping(t_uint256,t_address)": {
        "encoding": "mapping",
        "key": "t_uint256",
        "label": "mapping(uint256 => address)",
        "numberOfBytes": "32",
        "value": "t_address"
      },
      "t_string_storage": {
        "encoding": "bytes",
        "label": "string",
        "numberOfBytes": "32"
      },
      "t_struct(IdentityDetails)12774_storage": {
        "encoding": "inplace",
        "label": "struct SoulBound.IdentityDetails",
        "members": [
          {
            "astId": 12755,
            "contract": "contracts/soulbound.sol:SoulBound",
            "label": "dateOfBirth",
            "offset": 0,
            "slot": "0",
            "type": "t_userDefinedValueType(euint32)12"
          },
          {
            "astId": 12758,
            "contract": "contracts/soulbound.sol:SoulBound",
            "label": "medicalData",
            "offset": 0,
            "slot": "1",
            "type": "t_userDefinedValueType(euint8)8"
          },
          {
            "astId": 12761,
            "contract": "contracts/soulbound.sol:SoulBound",
            "label": "criminalRecord",
            "offset": 0,
            "slot": "2",
            "type": "t_userDefinedValueType(euint8)8"
          },
          {
            "astId": 12764,
            "contract": "contracts/soulbound.sol:SoulBound",
            "label": "fertilityMeasure",
            "offset": 0,
            "slot": "3",
            "type": "t_userDefinedValueType(euint8)8"
          },
          {
            "astId": 12767,
            "contract": "contracts/soulbound.sol:SoulBound",
            "label": "marriageStatus",
            "offset": 0,
            "slot": "4",
            "type": "t_userDefinedValueType(euint8)8"
          },
          {
            "astId": 12770,
            "contract": "contracts/soulbound.sol:SoulBound",
            "label": "rating",
            "offset": 0,
            "slot": "5",
            "type": "t_userDefinedValueType(euint8)8"
          },
          {
            "astId": 12773,
            "contract": "contracts/soulbound.sol:SoulBound",
            "label": "lastExamineDate",
            "offset": 0,
            "slot": "6",
            "type": "t_userDefinedValueType(euint32)12"
          }
        ],
        "numberOfBytes": "224"
      },
      "t_uint256": {
        "encoding": "inplace",
        "label": "uint256",
        "numberOfBytes": "32"
      },
      "t_userDefinedValueType(euint32)12": {
        "encoding": "inplace",
        "label": "euint32",
        "numberOfBytes": "32"
      },
      "t_userDefinedValueType(euint8)8": {
        "encoding": "inplace",
        "label": "euint8",
        "numberOfBytes": "32"
      }
    }
  }
}